:020000040800F2
:1000000000800120117100081D6E00081F6E00089D
:10001000216E0008236E0008256E00080000000015
:10002000000000000000000000000000276E000833
:10003000296E0008000000002B6E00082D6E0008DD
:100040006171000861710008617100086171000848
:100050006171000861710008617100086171000838
:100060006171000861710008617100086171000828
:100070006171000861710008617100086171000818
:1000800061710008617100086171000800000000E2
:100090000000000000000000000000006171000886
:1000A00061710008356E0008617100086171000817
:1000B00061710008617100086171000861710008D8
:1000C00061710008617100086171000861710008C8
:1000D0006171000861710008456E000800000000B1
:1000E000556E000861710008617100080000000091
:1000F0000000000000000000000000006171000826
:100100000000000061710008617100086171000861
:1001100000000000000000000000000000000000DF
:100120006171000861710008617100086171000867
:1001300061710008000000000000000000000000E5
:1001400000000000000000000000000061710008D5
:100150006171000861710008617100086171000837
:1001600061710008617100080000000000000000DB
:10017000000000000000000000000000000000007F
:100180000000000061710008000000000000000095
:040190006171000891
:1001A00010B5054C237833B9044B13B10448AFF3B1
:1001B00000800123237010BDFC0B00200000000014
:1001C00098B5000808B5034B1BB103490348AFF3CA
:1001D000008008BD00000000000C002098B5000859
:1001E000034613F8012B002AFBD1181A0138704777
:1001F00001F0FF01102A2BDB10F0070F08D010F8D8
:10020000013B013A8B422DD010F0070F42B3F6D1DB
:10021000F0B441EA012141EA014122F007047FF0F4
:1002200000070023F0E80256083C85EA010586EA4B
:10023000010685FA47F5A3FA87F586FA47F6A5FA87
:1002400087F68EB9EED1F0BC01F0FF0102F0070293
:1002500032B110F8013B013A83EA010313B1F8D13E
:100260000020704701387047002D06BF354603381F
:10027000073815F0010F07D1013015F4807F02BF58
:10028000013015F4C03F0130F0BC0138704700BFA9
:1002900081F0004102E000BF83F0004330B54FEA37
:1002A00041044FEA430594EA050F08BF90EA020FA4
:1002B0001FBF54EA000C55EA020C7FEA645C7FEA37
:1002C000655C00F0E2804FEA5454D4EB5555B8BF5A
:1002D0006D420CDD2C4480EA020281EA030382EACB
:1002E000000083EA010180EA020281EA0303362D5D
:1002F00088BF30BD11F0004F4FEA01314FF4801C30
:100300004CEA113102D0404261EB410113F0004F41
:100310004FEA03334CEA133302D0524263EB4303F8
:1003200094EA050F00F0A780A4F10104D5F1200E96
:100330000DDB02FA0EFC22FA05F2801841F10001F1
:1003400003FA0EF2801843FA05F359410EE0A5F1C5
:1003500020050EF1200E012A03FA0EFC28BF4CF0F6
:10036000020C43FA05F3C01851EBE37101F00045AC
:1003700007D54FF0000EDCF1000C7EEB00006EEBB9
:100380000101B1F5801F1BD3B1F5001F0CD3490843
:100390005FEA30004FEA3C0C04F101044FEA44529A
:1003A00012F5800F80F09A80BCF1004F08BF5FEA21
:1003B000500C50F1000041EB045141EA050130BD01
:1003C0005FEA4C0C404141EB0101013C28BFB1F513
:1003D000801FE9D291F0000F04BF01460020B1FA5E
:1003E00081F308BF2033A3F10B03B3F120020CDA31
:1003F0000C3208DD02F1140CC2F10C0201FA0CF00F
:1004000021FA02F10CE002F11402D8BFC2F1200C73
:1004100001FA02F120FA0CFCDCBF41EA0C01904029
:10042000E41AA2BF01EB0451294330BD6FEA040472
:100430001F3C1CDA0C340EDC04F11404C4F120025D
:1004400020FA04F001FA02F340EA030021FA04F36F
:1004500045EA030130BDC4F10C04C4F1200220FAC6
:1004600002F001FA04F340EA0300294630BD21FA04
:1004700004F0294630BD94F0000F83F4801306BFCA
:1004800081F480110134013D4EE77FEA645C18BFBE
:100490007FEA655C29D094EA050F08BF90EA020F55
:1004A00005D054EA000C04BF1946104630BD91EA4D
:1004B000030F1EBF0021002030BD5FEA545C05D150
:1004C0004000494128BF41F0004130BD14F580048F
:1004D0003CBF01F5801130BD01F0004545F0FE4103
:1004E00041F470014FF0000030BD7FEA645C1ABF38
:1004F000194610467FEA655C1CBF0B46024650EA6F
:10050000013406BF52EA033591EA030F41F400219A
:1005100030BD00BF90F0000F04BF0021704730B520
:100520004FF4806404F132044FF000054FF00001F5
:1005300050E700BF90F0000F04BF0021704730B5B6
:100540004FF4806404F1320410F0004548BF40428B
:100550004FF000013EE700BF42004FEAE2014FEAE0
:1005600031014FEA02701FBF12F07F4393F07F4FBB
:1005700081F06051704732F07F4208BF704793F0BE
:100580007F4F04BF41F40021704730B54FF46074D1
:1005900001F0004521F000411CE700BF50EA0102D4
:1005A00008BF704730B54FF000050AE050EA01027D
:1005B00008BF704730B511F0004502D5404261EBED
:1005C00041014FF4806404F132045FEA915C3FF42E
:1005D000D8AE4FF003025FEADC0C18BF03325FEACB
:1005E000DC0C18BF033202EBDC02C2F1200300FA7C
:1005F00003FC20FA02F001FA03FE40EA0E0021FAA1
:1006000002F11444BDE600BF70B54FF0FF0C4CF48E
:10061000E06C1CEA11541DBF1CEA135594EA0C0F40
:1006200095EA0C0F00F0DEF82C4481EA030621EA7B
:100630004C5123EA4C5350EA013518BF52EA0335B6
:1006400041F4801143F4801338D0A0FB02CE4FF068
:100650000005E1FB02E506F00042E0FB03E54FF098
:100660000006E1FB03569CF0000F18BF4EF0010E90
:10067000A4F1FF04B6F5007F64F5407404D25FEA8C
:100680004E0E6D4146EB060642EAC62141EA55513F
:100690004FEAC52040EA5E504FEACE2EB4F1FD0C81
:1006A00088BFBCF5E06F1ED8BEF1004F08BF5FEAFF
:1006B000500E50F1000041EB045170BD06F00046B1
:1006C00046EA010140EA020081EA0301B4EB5C045E
:1006D000C2BFD4EB0C0541EA045170BD41F4801156
:1006E0004FF0000E013C00F3AB8014F1360FDEBF7B
:1006F000002001F0004170BDC4F10004203C35DA57
:100700000C341BDC04F11404C4F1200500FA05F3D9
:1007100020FA04F001FA05F240EA020001F000427A
:1007200021F0004110EBD37021FA04F642EB0601F0
:100730005EEA430E08BF20EAD37070BDC4F10C041A
:10074000C4F1200500FA04F320FA05F001FA04F2DE
:1007500040EA020001F0004110EBD37041F10001CA
:100760005EEA430E08BF20EAD37070BDC4F12005D5
:1007700000FA05F24EEA020E20FA04F301FA05F23D
:1007800043EA020321FA04F001F0004121FA04F2E5
:1007900020EA020000EBD3705EEA430E08BF20EAB5
:1007A000D37070BD94F0000F0FD101F000464000EF
:1007B00041EB010111F4801F08BF013CF7D041EA71
:1007C000060195F0000F18BF704703F00046520075
:1007D00043EB030313F4801F08BF013DF7D043EA46
:1007E0000603704794EA0C0F0CEA135518BF95EAFC
:1007F0000C0F0CD050EA410618BF52EA4306D1D183
:1008000081EA030101F000414FF0000070BD50EAA1
:10081000410606BF1046194652EA430619D094EA2B
:100820000C0F02D150EA013613D195EA0C0F05D115
:1008300052EA03361CBF104619460AD181EA030169
:1008400001F0004141F0FE4141F470014FF0000021
:1008500070BD41F0FE4141F4780170BD70B54FF0BC
:10086000FF0C4CF4E06C1CEA11541DBF1CEA13553C
:1008700094EA0C0F95EA0C0F00F0A7F8A4EB05041E
:1008800081EA030E52EA03354FEA013100F0888015
:100890004FEA03334FF0805545EA131343EA1263DE
:1008A0004FEA022245EA111545EA10654FEA002693
:1008B0000EF000419D4208BF964244F1FD0404F54C
:1008C000407402D25B084FEA3202B61A65EB0305A8
:1008D0005B084FEA32024FF480104FF4002CB6EB65
:1008E000020E75EB030E22BFB61A754640EA0C00E5
:1008F0005B084FEA3202B6EB020E75EB030E22BF25
:10090000B61A754640EA5C005B084FEA3202B6EB65
:10091000020E75EB030E22BFB61A754640EA9C0024
:100920005B084FEA3202B6EB020E75EB030E22BFF4
:10093000B61A754640EADC0055EA060E18D04FEAB2
:10094000051545EA16754FEA06164FEAC30343EA52
:1009500052734FEAC2025FEA1C1CC0D111F4801F1F
:100960000BD141EA00014FF000004FF0004CB6E718
:1009700011F4801F04BF01430020B4F1FD0C88BFB7
:10098000BCF5E06F3FF6AFAEB5EB030C04BFB6EBC2
:10099000020C5FEA500C50F1000041EB045170BDB5
:1009A0000EF0004E4EEA113114EB5C04C2BFD4EBE2
:1009B0000C0541EA045170BD41F480114FF0000E66
:1009C000013C90E645EA060E8DE60CEA135594EAE2
:1009D0000C0F08BF95EA0C0F3FF43BAF94EA0C0FE5
:1009E0000AD150EA01347FF434AF95EA0C0F7FF45A
:1009F00025AF104619462CE795EA0C0F06D152EAAE
:100A000003353FF4FDAE1046194622E750EA410691
:100A100018BF52EA43067FF4C5AE50EA41047FF4A2
:100A20000DAF52EA43057FF4EBAE12E74FF0FF3C07
:100A300006E000BF4FF0010C02E000BF4FF0010CD8
:100A40004DF804CD4FEA410C7FEA6C5C4FEA430C51
:100A500018BF7FEA6C5C1BD001B050EA410C0CBFA0
:100A600052EA430C91EA030F02BF90EA020F002002
:100A7000704710F1000F91EA030F58BF994208BF69
:100A800090422CBFD8176FEAE37040F00100704726
:100A90004FEA410C7FEA6C5C02D150EA013C07D17D
:100AA0004FEA430C7FEA6C5CD6D152EA033CD3D0C8
:100AB0005DF8040B704700BF8446104662468C46C2
:100AC0001946634600E000BF01B5FFF7B7FF0028F5
:100AD00048BF10F1000F01BD4DF808EDFFF7F4FF1E
:100AE0000CBF012000205DF808FB00BF4DF808EDA9
:100AF000FFF7EAFF34BF012000205DF808FB00BFCC
:100B00004DF808EDFFF7E0FF94BF012000205DF8ED
:100B100008FB00BF4DF808EDFFF7CEFF94BF0120A2
:100B200000205DF808FB00BF4DF808EDFFF7C4FF9B
:100B300034BF012000205DF808FB00BF4FEA410CE4
:100B40007FEA6C5C02D150EA013C0AD14FEA430CC7
:100B50007FEA6C5C02D152EA033C02D14FF0000004
:100B600070474FF0010070474FEA410212F5001242
:100B700015D211D56FF47873B3EB625212D94FEAE4
:100B8000C12343F0004343EA505311F0004F23FACE
:100B900002F018BF404270474FF00000704750EA23
:100BA000013005D111F0004008BF6FF000407047E0
:100BB0004FF00000704700BF53B94AB9002908BF81
:100BC00000281CBF4FF0FF314FF0FF3000F06EB92E
:100BD000ADF1080C6DE904CE00F006F8DDF804E094
:100BE000DDE9022304B070472DE9F047089D044673
:100BF0008C46002B40F083808A42174647D9B2FAD0
:100C000082F242B1C2F1200024FA00F091409740F4
:100C100040EA010C94404FEA1748230CBCFBF8F65D
:100C20001FFA87FE08FB16C143EA014306FB0EF1DB
:100C3000994209D9FB1806F1FF3080F019819942D9
:100C400040F21681023E3B445B1AA4B2B3FBF8F0BB
:100C500008FB103344EA034400FB0EFEA64509D905
:100C60003C1900F1FF3380F00581A64540F2028176
:100C700002383C4440EA0640A4EB0E0400261DB1B5
:100C8000D4400023C5E900433146BDE8F08702B9EE
:100C9000FFDEB2FA82F2002A50D1CB1B4FEA174E88
:100CA0001FFA87F80126B3FBFEFC210C0EFB1C3358
:100CB00041EA034108FB0CF38B4207D979180CF188
:100CC000FF3002D28B4200F2E9808446C91AA3B2F7
:100CD000B1FBFEF00EFB101143EA014408FB00F8E3
:100CE000A04507D93C1900F1FF3302D2A04500F21C
:100CF000D9801846A4EB080440EA0C40BFE78B42B9
:100D000009D9002D00F0B1800026C5E90001304668
:100D10003146BDE8F087B3FA83F6002E4AD18B4204
:100D200002D3824200F2B880841A61EB03010120F1
:100D30008C46002DA8D0C5E9004CA5E7C2F12003E0
:100D400020FA03F6974001FA02F04FEA174ED94015
:100D50003043030CB1FBFEF61FFA87F80EFB1611A9
:100D600043EA014306FB08F1994204FA02F409D967
:100D7000FB1806F1FF3C80F08D80994240F28A809A
:100D8000023E3B445B1A81B2B3FBFEF00EFB103314
:100D900041EA034100FB08F38B4207D9791800F1BF
:100DA000FF3C73D28B4271D902383944CB1A40EAE6
:100DB000064678E7C6F1200C03FA06F422FA0CF393
:100DC0001C4320FA0CF701FA06F34FEA144E21FAFD
:100DD0000CF11F433B0CB1FBFEF91FFA84F80EFB2C
:100DE000191143EA014109FB08FA8A4502FA06F2A1
:100DF00000FA06F308D9611809F1FF3048D28A4594
:100E000046D9A9F102092144A1EB0A01BFB2B1FB05
:100E1000FEF00EFB101147EA014700FB08F8B84549
:100E200007D9E71900F1FF312ED2B8452CD9023885
:100E3000274440EA0940A7EB0807A0FB02894F4579
:100E4000C64649461AD317D05DB1B3EB0E0267EB25
:100E5000010707FA0CFCF2404CEA0202F740C5E930
:100E6000002700263146BDE8F0872E4628460BE7CE
:100E70000646E9E61846FDE64345E5D2B8EB020E24
:100E800069EB04010138DFE70846D2E760468DE7E9
:100E90008146B9E7664675E730464AE7ACF1020C91
:100EA000394413E702383C4424E700BF704700BFD1
:100EB00001238B70002048700B70C870024B4B6090
:100EC0008B600023CB60704700004841D0ED036A7F
:100ED000D0ED017A36EEE77A27EE007A90ED020A3D
:100EE00067EE807A90ED006A66EE866A77EEE67AC3
:100EF00077EE277A30EE460A87EE800A704710B503
:100F000084682CB9446941F08001007BA04710BD82
:100F1000446941F04001007BA047F8E710B58468C0
:100F20002CB9046941F08001007BA04710BD046921
:100F300041F04001007BA047F8E790F82930012BF1
:100F400012D010B5044690F82A3023B1012384F85A
:100F50002930002010BD01211C3000F064FA002867
:100F6000F4D04FF0FF30F5E70020704790F82930BB
:100F70008BB110B5044690F82A301BB1002084F8DC
:100F8000290010BD00211C3000F04DFA0028F5D0DA
:100F90004FF0FF30F5E70020704790F82A30012B22
:100FA00012D010B5044690F8293023B1012384F8FB
:100FB0002A30002010BD01211C3000F034FA002836
:100FC000F4D04FF0FF30F5E70020704790F82A305A
:100FD0008BB110B5044690F829301BB1002084F87D
:100FE0002A0010BD00211C3000F01DFA0028F5D0A9
:100FF0004FF0FF30F5E70020704710B5044690F839
:101000002830012B03D0002084F8280010BDFFF702
:10101000ADFF38B92046FFF7D9FF0028F3D04FF0D5
:10102000FF30F3E74FF0FF30F0E708B5F7EE007A56
:10103000B4EEE70AF1EE10FA08D9F1EE0C7AB4EE4C
:10104000E70AF1EE10FA07D8022100E001211C3076
:1010500000F080F910B908BD0321F8E74FF0FF3028
:10106000F9E738B5044600F11C050021284600F0D8
:10107000DAF958B90121284600F0A7F948B9B7EEC6
:10108000000A2046FFF7D1FF30B938BD4FF0FF30DE
:10109000FBE74FF0FF30F8E74FF0FF30F5E710B512
:1010A000044690F8283023B1012384F8283000202A
:1010B00010BDFFF7D6FF0028F6D04FF0FF30F7E75E
:1010C00008B5FFF7B2FF08BD08B5FFF7AEFF08BDD2
:1010D00008B51C3000F0A0F900B908BD4FF0FF3092
:1010E000FBE7000010B582B00C460DF107011C3083
:1010F00000F049F9A8B99DF80730032B14D8DFE8B0
:1011000003F002060A0D0023236002B010BD4FF069
:101110007E532360F9E7064B2360F6E7054B236017
:10112000F3E74FF0FF30F0E74FF0FF30EDE700BF9F
:101130000000E0400000484108B5FFF7D3FF08BDBC
:1011400008B5FFF7CFFF08BD30B587B00D4600F1F9
:101150001C0404A9204600F0D2F900285AD1BDF998
:10116000103007EE903AF8EEE77ACDED007A04A958
:10117000204600F071F900284FD19DF8103007EE9D
:10118000903AF8EE677ACDED017A04A9204600F096
:10119000BDF9002844D1BDF9103007EE903AF8EEC1
:1011A000E77ACDED027A04A9204600F060F9D0BBC1
:1011B0009DF8103007EE903AF8EE677ACDED037A9D
:1011C0000023ADF8143005A9204600F017F90446B5
:1011D00060BBBDF9143000EE103AB8EEC00A6846A4
:1011E000FFF774FE85ED000AB5EEC00AF1EE10FAC5
:1011F0000DD495ED007ADFED0F7AB4EEE77AF1EEDB
:1012000010FA01DDC5ED007A204607B030BD00239D
:101210002B60EEE74FF0FF34F6E74FF0FF34F3E7D3
:101220004FF0FF34F0E74FF0FF34EDE74FF0FF34BD
:10123000EAE700BF0000C84230B587B00D4600F1B4
:101240001C0404A9204600F068F9002845D1BDF926
:10125000103007EE903AF8EEE77ACDED007A04A967
:10126000204600F00FF9D8BB9DF8103007EE903AF9
:10127000F8EE677ACDED017A04A9204600F054F922
:1012800088BBBDF9103007EE903AF8EEE77ACDED65
:10129000027A04A9204600F013F938BB9DF81030FB
:1012A00007EE903AF8EE677ACDED037A0023ADF8B9
:1012B000143005A9204600F0A8F80446C8B9BDF9C5
:1012C000143000EE103AB8EEC00A6846FFF7FEFD93
:1012D00085ED000A204607B030BD4FF0FF34F9E736
:1012E0004FF0FF34F6E74FF0FF34F3E74FF0FF34F1
:1012F000F0E74FF0FF34EDE7B8B108B503460A68F0
:1013000002604868586088689860087B18730869AC
:1013100018614869586189699961074919620749E3
:10132000D9615B6222B1904708BD4FF0FF30704732
:101330004FF0FF30F8E700BFFF0E00081D0F000858
:1013400010B544688068A04710BD10B50468806877
:10135000A04710BD30B583B004460D46012301AA55
:101360002021FFF7EDFF08B103B030BD9DF8043038
:1013700065F301038DF80430012301AA20212046E2
:10138000FFF7E3FFF0E710B582B00C46012301AA96
:101390002021FFF7D5FF9DF8043003F00303032B52
:1013A00010D8DFE803F00206090C0023237002B016
:1013B00010BD01232370FAE702232370F7E703230C
:1013C0002370F4E704232370F1E730B583B00446BB
:1013D0000D46012301AA2021FFF7B2FF08B103B097
:1013E00030BD9DF8043065F382038DF8043001238D
:1013F00001AA20212046FFF7A8FFF0E708B50A461A
:1014000002232821FFF79CFF08BD08B50A460223E6
:101410002A21FFF795FF08BD08B50A4601230F21D1
:10142000FFF78EFF08BD30B583B004460D4601239B
:1014300001AA2021FFF784FF08B103B030BD9DF859
:10144000043065F3C7138DF80430012301AA20216D
:101450002046FFF77AFFF0E710B50C4601230A4655
:101460003021FFF76DFF23785B08237010BD10B5A6
:101470000C4601230A463121FFF762FF23785B08FF
:10148000237010BD30B583B004460D4601230DF125
:1014900003023221FFF754FF08B103B030BD01232E
:1014A00001AA35212046FFF74BFF9DF8043003F0D9
:1014B00003029DF8033003EB0223DB082B70ECE7FB
:1014C00030B583B004460D4601230DF103023321EC
:1014D000FFF736FF08B103B030BD012301AA352163
:1014E0002046FFF72DFF9DF80430C3F381029DF8DD
:1014F000033003EB0223C3F3C7032B70EBE708B5FC
:101500000A4602233621FFF71BFF08BD08B50A462D
:1015100002233A21FFF714FF08BD08B50A4602234B
:101520003C21FFF70DFF08BD08B50A4602233E2106
:10153000FFF706FF08BD00000020887001234B70F4
:101540000B70C87000234B60014B8B60CB60704701
:1015500000009642F7EE007AB4EEE70AF1EE10FAD8
:1015600016D9F2EE047AB4EEE70AF1EE10FA14D9C5
:10157000F3EE097AB4EEE70AF1EE10FA0FD9DFEDD7
:101580000A7AB4EEE70AF1EE10FA0AD8042300E072
:10159000012380F82B30002070470223F9E7032352
:1015A000F7E70523F5E700BF000048422DE9F843BF
:1015B0000646884691461F4683688BB900231C4621
:1015C000BC4212D2756904EB0801012309EB040245
:1015D00089B2307BA847034650B90134A4B2EFE783
:1015E00044693B46007BA04703461846BDE8F883A4
:1015F0004FF0FF33F9E72DE9F84306468846914658
:101600001F4683688BB900231C46BC4212D2356941
:1016100004EB0801012309EB040289B2307BA847DF
:10162000034650B90134A4B2EFE704693B46007B9E
:10163000A04703461846BDE8F8834FF0FF33F9E7AB
:1016400090F82930012B0BD010B5044690F82B10E0
:101650001C3000F02FFA28B9012384F8293010BD7E
:10166000002070474FF0FF30F9E790F82A30012B47
:101670000BD010B5044690F82B101C3000F01AFA6D
:1016800028B9012384F82A3010BD002070474FF09C
:10169000FF30F9E770B5044600F11C05012128462A
:1016A00000F05FFA20BB0021284600F003FA10BBCF
:1016B0000221284600F0E5F900BB0121284600F090
:1016C000C7F90646E8B9A3684BB90021284600F0DF
:1016D00061FAC8B9032384F82B30304670BD01216C
:1016E000284600F057FA0028F4D04FF0FF36F4E710
:1016F0004FF0FF36F1E74FF0FF36EEE74FF0FF36E1
:10170000EBE74FF0FF36E8E74FF0FF36E5E710B5BF
:10171000044690F8283023B1012384F828300020B3
:1017200010BDFFF7B7FF0028F6D04FF0FF30F7E706
:1017300008B51C3000F00EFA00B908BD4FF0FF30BC
:10174000FBE738B590F82930C3B1044690F82A3049
:101750001BB1002084F8290038BD00F11C0500F100
:101760002B01284600F0BFF950B90021284600F0AF
:10177000A1F90028EDD04FF0FF30EDE70020EBE7B6
:101780004FF0FF30E8E7000010B582B00C460DF1D5
:1017900007011C3000F0A7F9E0B99DF80730052BD0
:1017A0001BD8DFE803F003070B0E1114002323609E
:1017B00002B010BD4FF07E532360F9E7084B236061
:1017C000F6E7084B2360F3E7074B2360F0E7074B8E
:1017D0002360EDE74FF0FF30EAE74FF0FF30E7E737
:1017E000000020410000C84100004842000096422D
:1017F00008B5FFF7C9FF08BD08B5FFF7C5FF08BD6D
:1018000038B50446F7EE007AB4EEE70AF1EE10FAC6
:1018100016D9F2EE047AB4EEE70AF1EE10FA1DD909
:10182000F3EE097AB4EEE70AF1EE10FA18D9DFED1B
:10183000117AB4EEE70AF1EE10FA13D8042100E0B1
:10184000012104F11C05284600F034F960B904F1C7
:101850002B01284600F047F948B938BD0221F0E7CE
:101860000321EEE70521ECE74FF0FF30F5E74FF0FD
:10187000FF30F2E70000484208B590F82930012B0C
:1018800002D0FFF767FE08BDFFF7BAFFFBE708B518
:1018900090F82A30012B02D0FFF75CFE08BDFFF75D
:1018A000AFFFFBE738B590F82A30C3B1044690F893
:1018B00029301BB1002084F82A0038BD00F11C0536
:1018C00000F12B01284600F00EF950B900212846FE
:1018D00000F0F0F80028EDD04FF0FF30EDE70020E9
:1018E000EBE74FF0FF30E8E710B5044690F82830FA
:1018F000012B03D0002084F8280010BDFFF721FF42
:1019000038B92046FFF7CEFF0028F3D04FF0FF3064
:10191000F3E74FF0FF30F0E730B583B00C4600231B
:10192000019301A91C3000F007F940B90546019860
:1019300000F076F884ED000A284603B030BD4FF081
:10194000FF35F9E730B583B00C460023ADF804301D
:1019500001A91C3000F0F7F848B90546BDF90400AC
:1019600000F06AF884ED000A284603B030BD4FF05D
:10197000FF35F9E700B583B08DF8072001230DF19D
:1019800007021C3000F047F810B903B05DF804FB03
:101990004FF0FF30F9E70000002829D010B50446C9
:1019A0000B6803604A6842608A6882600A7B02733F
:1019B0000A6902614A6942618A698261114A026266
:1019C000114AC2614062B3B19847B8B9A368022B0B
:1019D00000D010BD94F82830002BFAD1012210213C
:1019E0002046FFF7C7FF0028F3D04FF0FF30F0E7A5
:1019F0004FF0FF3070474FF0FF30EAE74FF0FF3015
:101A0000E7E700BFAD150008F715000810B54468FA
:101A10008068A04710BD10B504688068A04710BD5D
:101A200007EE900AF8EEE77A9FED020A27EE800AA9
:101A3000704700BF0000803907EE900AF8EEE77AA1
:101A40009FED020A87EE800A704700BF0000C8427F
:101A500030B583B004460D46012301AA1021FFF7DB
:101A6000D5FF08B103B030BD9DF8043065F34103E4
:101A70008DF80430012301AA10212046FFF7CBFF87
:101A8000F0E730B583B004460D46012301AA1021CA
:101A9000FFF7BCFF08B103B030BD9DF8043065F31B
:101AA00083038DF80430012301AA10212046FFF79B
:101AB000B2FFF0E730B583B004460D46012301AA1A
:101AC0001021FFF7A3FF08B103B030BD9DF804302B
:101AD00065F306138DF80430012301AA1021204676
:101AE000FFF799FFF0E710B582B00C46012301AA79
:101AF0001021FFF78BFF9DF80430C3F30213052B71
:101B000017D8DFE803F003070A0D10130023237032
:101B100002B010BD01232370FAE702232370F7E718
:101B200003232370F4E704232370F1E705232370D4
:101B3000EEE701232370EBE708B50A4603232821CB
:101B4000FFF764FF08BD08B50A4602232B21FFF703
:101B50005DFF08BD08B50A4601230F21FFF756FFB8
:101B600008BD30B583B004460D46012301AA1A21F1
:101B7000FFF74CFF08B103B030BD9DF8043065F3AA
:101B800000038DF80430012301AA1A212046FFF733
:101B900042FFF0E730B583B004460D46012301AAA9
:101BA0001121FFF733FF08B103B030BD9DF80430B9
:101BB00065F304138DF80430012301AA1121204696
:101BC000FFF729FFF0E7000001230B7000204870A9
:101BD0008870C870486010238B60C86000230B6158
:101BE000014A4A618B6170470000C84300200870B9
:101BF000487001238B70C870486088603223CB60C6
:101C000000230B614B61014B8B6170470000C842A0
:101C10004FF07F530B600020704732230B60002091
:101C20007047002070470000F7EE007AB4EEE70A34
:101C3000F1EE10FA24D9F2EE047AB4EEE70AF1EEEE
:101C400010FA22D9F3EE097AB4EEE70AF1EE10FAAF
:101C50001DD9DFED137AB4EEE70AF1EE10FA18D9C8
:101C6000DFED107AB4EEE70AF1EE10FA13D9DFEDEA
:101C70000E7AB4EEE70AF1EE10FA0ED8062300E071
:101C8000012380F82A30002070470223F9E703235C
:101C9000F7E70423F5E70523F3E70723F1E700BFA0
:101CA000000048420000C8420000484310B5846864
:101CB0002CB9446941F08001007BA04710BD446904
:101CC00041F04001007BA047F8E710B584682CB9CB
:101CD000046941F08001007BA04710BD046941F018
:101CE0004001007BA047F8E710B584682CB944692F
:101CF00041F08001007BA04710BD446941F04001E4
:101D0000007BA047F8E710B584682CB9046941F05E
:101D10008001007BA04710BD046941F04001007BB9
:101D2000A047F8E790F82930012B0BD010B50446F6
:101D300090F82A101C3000F060FC28B9012384F8C8
:101D4000293010BD002070474FF0FF30F9E7000048
:101D500008B5F7EE007AB4EEE70AF1EE10FA24D9EE
:101D6000F2EE047AB4EEE70AF1EE10FA23D9F3EEBC
:101D7000097AB4EEE70AF1EE10FA1ED9DFED147A13
:101D8000B4EEE70AF1EE10FA19D9DFED127AB4EEEB
:101D9000E70AF1EE10FA14D9DFED0F7AB4EEE70A94
:101DA000F1EE10FA0FD8062100E001211C3000F0FE
:101DB00024FC50B908BD0221F8E70321F6E704210D
:101DC000F4E70521F2E70721F0E74FF0FF30F1E7F4
:101DD000000048420000C8420000484308B590F89F
:101DE0002930012B02D0FFF71FFF08BDFFF7B0FF1E
:101DF000FBE738B5044600F11C050121284600F038
:101E000086FCA8B90021284600F03CFD98B90523BE
:101E100084F82A300021284600F0EFFB70B9002139
:101E2000284600F039FC60B9012384F8283038BD19
:101E30004FF0FF30FBE74FF0FF30F8E74FF0FF3097
:101E4000F5E74FF0FF30F2E708B5022905DD042978
:101E500009DD082909DC022100E000211C3000F026
:101E60001BFC20B908BD0121F8E70321F6E74FF07C
:101E7000FF30F7E708B51C3000F0DDFC00B908BD05
:101E80004FF0FF30FBE738B590F829300BB9002050
:101E900038BD044600F11C0500F12A01284600F077
:101EA000C5FB38B90021284600F0A7FB28B984F803
:101EB0002900EDE74FF0FF30EAE74FF0FF30E7E7AA
:101EC00010B50446FFF7DFFF20B984F82A0084F834
:101ED000280010BD4FF0FF30FBE7000030B583B0A5
:101EE0000D4600F11C040DF10701204600F060FBD7
:101EF00000285CD10DF10601204600F097FB002878
:101F000058D19DF80730022B0AD09DF80630092BD6
:101F100056D8DFE803F02F33373A3D404346554962
:101F20009DF80630092B48D8DFE803F005080C0FB0
:101F30001215181B1E2100232B601DE04FF07E534D
:101F40002B6019E0204B2B6016E0204B2B6013E038
:101F50001F4B2B6010E01F4B2B600DE01E4B2B60C6
:101F60000AE01E4B2B6007E01D4B2B6004E01D4B6D
:101F70002B6001E000232B6003B030BD4FF07E5397
:101F80002B60F9E7104B2B60F6E7104B2B60F3E763
:101F90000F4B2B60F0E70F4B2B60EDE70E4B2B60E8
:101FA000EAE70E4B2B60E7E70F4B2B60E4E74FF0BF
:101FB000FF30E1E74FF0FF30DEE74FF0FF30DBE7C7
:101FC0004FF0FF30D8E700BF000020410000C841BB
:101FD000000048420000C842000048430000C843D7
:101FE0000080CA440000A8450000A84410B582B093
:101FF0000C460DF107011C3000F067FBA0B99DF8FD
:102000000730032B13D8DFE803F00206090C094B55
:10201000236002B010BD084B2360FAE7074B236032
:10202000F7E7074B2360F4E74FF0FF30F1E74FF09D
:10203000FF30EEE748E17A3F9A99F93F9A99794063
:102040001F853B4110B582B00C460DF107011C30D5
:1020500000F03BFBA0B99DF80730032B13D8DFE855
:1020600003F00206090C094B236002B010BD084BB7
:102070002360FAE7074B2360F7E7074B2360F4E799
:102080004FF0FF30F1E74FF0FF30EEE79A997940DB
:10209000713DFA407B147A419A993B4210B582B067
:1020A0000C460DF107011C3000F00FFBA0B99DF8A4
:1020B0000730032B13D8DFE803F00206090C094BA5
:1020C000236002B010BD084B2360FAE7074B236082
:1020D000F7E7074B2360F4E74FF0FF30F1E74FF0ED
:1020E000FF30EEE77B147A417B14FA417B147A428D
:1020F0007B943B4330B583B004460D460DF1070198
:102100001C3000F055FA28BB9DF80730012B0FD08A
:10211000022B16D01BB14FF0FF3003B030BD294663
:102120002046FFF763FF0028F7D04FF0FF30F4E7B9
:1021300029462046FFF786FF0028EED04FF0FF30FB
:10214000EBE729462046FFF7A9FF0028E5D04FF02E
:10215000FF30E2E74FF0FF30DFE710B582B00C460A
:102160000DF107011C3000F0B0FAA0B99DF807305E
:10217000032B13D8DFE803F00206090C02232360C7
:1021800002B010BD04232360FAE708232360F7E7B9
:1021900010232360F4E74FF0FF30F1E74FF0FF30FA
:1021A000EEE770B584B00C4600F11C050DF1070197
:1021B000284600F0FDF928BB9DF80730012B1CD004
:1021C000022B1CD013B14FF0FF3014E0102602A9EF
:1021D000284600F0B5FAC0B9BDF9083093FBF6F314
:1021E0002380BDF90A3093FBF6F36380BDF90C3010
:1021F00093FBF6F6A68004B070BD4026E7E74FF4E7
:102200008076E4E74FF0FF30F5E74FF0FF30F2E77C
:1022100030B585B005460C460023019302A9FFF7AF
:10222000C0FF60BB01A92846FFF764FF50BBBDF9A2
:10223000083007EE103AB8EEC77ADDED017A27EEE6
:10224000277ABDEEC77A84ED007ABDF90A3007EE31
:10225000103AB8EEC77A27EE277ABDEEC77A84ED3A
:10226000017ABDF90C3007EE103AB8EEC77A67EE86
:10227000877AFDEEE77AC4ED027A05B030BD4FF003
:10228000FF30FAE74FF0FF30F7E790F82930012BE5
:102290000AD010B5044600211C3000F058FA28B9C5
:1022A000012384F8293010BD002070474FF0FF3023
:1022B000F9E790F829300BB90020704710B50446B3
:1022C00002211C3000F043FA10B984F8290010BD37
:1022D0004FF0FF30FBE710B50446FFF7EAFF10B9F7
:1022E00084F8280010BD4FF0FF30FBE708B5F2EE90
:1022F000047AB4EEE70AF1EE10FA0FD9F3EE047A9D
:10230000B4EEE70AF1EE10FA0ED9DFED0B7AB4EE77
:10231000E70AF1EE10FA09D8022100E000211C3092
:1023200000F02EFA20B908BD0121F8E70321F6E7F5
:102330004FF0FF30F7E700BF0000484238B50446D1
:1023400000F11C050121284600F055FA90B9022140
:10235000284600F0FCF980B90321284600F010FA65
:1023600070B90021284600F074FA60B9012384F89E
:10237000283038BD4FF0FF30FBE74FF0FF30F8E773
:102380004FF0FF30F5E74FF0FF30F2E708B51C30B3
:1023900000F058FA00B908BD4FF0FF30FBE700002D
:1023A00010B582B00C460DF107011C3000F001FAA7
:1023B000A0B99DF80730032B13D8DFE803F002061D
:1023C000090C094B236002B010BD084B2360FAE7EB
:1023D000074B2360F7E7074B2360F4E74FF0FF302C
:1023E000F1E74FF0FF30EEE7000020410000A04190
:1023F000000048420000C84210B582B00C46694651
:102400001C3000F011FA50B9BDF900302380BDF93D
:1024100002306380BDF90430A38002B010BD4FF0DC
:10242000FF30FAE770B584B005460C4602A91C30AF
:1024300000F0FAF968BB064601A92846FFF7E8FB59
:10244000BDF9083007EE103AB8EEC77ADDED017A33
:1024500027EE277ABDEEC77A84ED007ABDF90A30FF
:1024600007EE103AB8EEC77A27EE277ABDEEC77AA4
:1024700084ED017ABDF90C3007EE103AB8EEC77A58
:1024800067EE877AFDEEE77AC4ED027A304604B053
:1024900070BD4FF0FF36F9E700B583B08DF8072027
:1024A00001230DF107021C3000F07DF810B903B0D4
:1024B0005DF804FB4FF0FF30F9E70000002829D059
:1024C00010B504460B6803604A6842608A688260FF
:1024D0000A7B02730A6902614A6942618A69826100
:1024E000114A0262114AC2614062B3B19847B8B959
:1024F000A368012B00D010BD94F82830002BFAD12E
:10250000012223212046FFF7C7FF0028F3D04FF018
:10251000FF30F0E74FF0FF3070474FF0FF30EAE751
:102520004FF0FF30E7E700BFAD1C0008CB1C0008F0
:1025300038B310B504460B6803604A6842608A6885
:1025400082600A7B02730A6902614A6942618A6990
:102550008261104A0262104AC2614062A3B1984788
:10256000A8B9A36813B194F8283003B110BD0121B4
:1025700004F11C0000F09FF90028F7D04FF0FF3065
:10258000F4E74FF0FF3070474FF0FF30EEE74FF0C9
:10259000FF30EBE7E91C0008071D000810B5446890
:1025A0008068A04710BD10B504688068A04710BDC2
:1025B00030B583B005460C4601236A462021FFF75B
:1025C000EDFF40B19DF8003013F0080F0AD0022350
:1025D000237003B030BD012301AA23212846FFF751
:1025E000DDFFEFE79DF8043013F0080F02D0002361
:1025F0002370EEE701232370EBE730B583B0044688
:102600000D46012301AA2021FFF7C8FF08B103B03E
:1026100030BD9DF8043065F307138DF804300123B5
:1026200001AA20212046FFF7BEFFF0E710B582B0D7
:102630000C46012301AA2021FFF7B0FF9DF80430CA
:102640001B09092B25D8DFE803F005090C0F12152B
:10265000181B1E210023237002B010BD012323701C
:10266000FAE702232370F7E703232370F4E7042338
:102670002370F1E705232370EEE706232370EBE7D1
:1026800007232370E8E708232370E5E70923237075
:10269000E2E700232370DFE730B583B004460D4640
:1026A000012301AA2321FFF779FF08B103B030BD50
:1026B0009DF8043065F305138DF80430012301AA59
:1026C00023212046FFF76FFFF0E710B582B00C46DC
:1026D000012301AA2321FFF761FF9DF80430C3F312
:1026E0000113032B10D8DFE803F00206090C0023C6
:1026F000237002B010BD01232370FAE70223237078
:10270000F7E703232370F4E700232370F1E730B5E4
:1027100083B004460D46012301AA2321FFF73EFFA3
:1027200008B103B030BD9DF8043065F3C7138DF8D0
:102730000430012301AA23212046FFF734FFF0E7EC
:1027400008B50A4606232821FFF728FF08BD30B543
:1027500083B004460D46012301AA6021FFF71EFF46
:1027600008B103B030BD9DF8043065F301038DF866
:102770000430012301AA60212046FFF714FFF0E78F
:1027800030B583B004460D46012301AA6021FFF74E
:1027900005FF08B103B030BD9DF8043065F3830335
:1027A0008DF80430012301AA60212046FFF7FBFECB
:1027B000F0E710B582B00C46012301AA6021FFF7B3
:1027C000EDFE9DF80430C3F38103032B10D8DFE83E
:1027D00003F00206090C0023237002B010BD012390
:1027E0002370FAE702232370F7E703232370F4E74B
:1027F00000232370F1E730B583B004460D46012372
:1028000001AA6221FFF7CAFE08B103B030BD9DF8EE
:10281000043065F304138DF80430012301AA62210A
:102820002046FFF7C0FEF0E708B50A4606236821F8
:10283000FFF7B4FE08BD08B50A4601230F21FFF7D4
:10284000ADFE08BD08B50A4601234F21FFF7A6FEDD
:1028500008BD30B583B004460D46012301AA6221AC
:10286000FFF79CFE08B103B030BD9DF8043065F35E
:1028700041038DF80430012301AA62212046FFF7AD
:1028800092FEF0E730B583B004460D46012301AA5D
:102890002E21FFF783FE08B103B030BD9DF8043050
:1028A00065F387138DF80430012301AA2E212046F9
:1028B000FFF779FEF0E730B583B004460D460123FB
:1028C00001AA6221FFF76AFE08B103B030BD9DF88E
:1028D000043065F345138DF80430012301AA622109
:1028E0002046FFF760FEF0E701230B704B700020DD
:1028F0008870C8704FF4FA634B6010238B60C86017
:10290000024B0B614B6100238B6170470020D04567
:10291000F2EE097AB4EEE70AF1EE10FA39D9F3EEE5
:102920000A7AB4EEE70AF1EE10FA37D9DFED237A2E
:10293000B4EEE70AF1EE10FA32D9DFED217AB4EE07
:10294000E70AF1EE10FA2DD9DFED1E7AB4EEE70AB0
:10295000F1EE10FA28D9DFED1C7AB4EEE70AF1EEB9
:1029600010FA23D9DFED197AB4EEE70AF1EE10FA86
:102970001ED9DFED177AB4EEE70AF1EE10FA19D995
:10298000DFED147AB4EEE70AF1EE10FA14D8092359
:1029900000E0012380F82B30002070470223F9E784
:1029A0000323F7E70423F5E70523F3E70623F1E71D
:1029B0000723EFE70823EDE70A23EBE70000504287
:1029C0000000D042000050430000D043004050447B
:1029D0000080CF4400205045F2EE097AB4EEE70AB9
:1029E000F1EE10FA39D9F3EE0A7AB4EEE70AF1EE15
:1029F00010FA37D9DFED237AB4EEE70AF1EE10FAD8
:102A000032D9DFED217AB4EEE70AF1EE10FA2DD9D2
:102A1000DFED1E7AB4EEE70AF1EE10FA28D9DFED09
:102A20001C7AB4EEE70AF1EE10FA23D9DFED197A39
:102A3000B4EEE70AF1EE10FA1ED9DFED177AB4EE24
:102A4000E70AF1EE10FA19D9DFED147AB4EEE70ACD
:102A5000F1EE10FA14D8092300E0012380F82C309D
:102A6000002070470223F9E70323F7E70423F5E783
:102A70000523F3E70623F1E70723EFE70823EDE754
:102A80000A23EBE7000050420000D0420000504310
:102A90000000D043004050440080CF440020504507
:102AA00010B54469007BA04710BD10B50469007BD8
:102AB000A04710BD90F82930012B0BD010B504466B
:102AC00090F82B101C3000F072FC28B9012384F818
:102AD000293010BD002070474FF0FF30F9E70000AB
:102AE00008B5F2EE097AB4EEE70AF1EE10FA39D938
:102AF000F3EE0A7AB4EEE70AF1EE10FA38D9DFED18
:102B0000267AB4EEE70AF1EE10FA33D9DFED237A34
:102B1000B4EEE70AF1EE10FA2ED9DFED217AB4EE29
:102B2000E70AF1EE10FA29D9DFED1E7AB4EEE70AD2
:102B3000F1EE10FA24D9DFED1C7AB4EEE70AF1EEDB
:102B400010FA1FD9DFED197AB4EEE70AF1EE10FAA8
:102B50001AD9DFED177AB4EEE70AF1EE10FA15D8BC
:102B6000092100E001211C3000F021FC80B908BDE2
:102B70000221F8E70321F6E70421F4E70521F2E753
:102B80000621F0E70721EEE70821ECE70A21EAE752
:102B90004FF0FF30EBE700BF000050420000D04292
:102BA000000050430000D043004050440080CF4418
:102BB0000020504508B590F82930012B02D0FFF7CE
:102BC000A7FE08BDFFF78CFFFBE708B5022905DD6E
:102BD000042909DD082909DC032100E000211C305B
:102BE00000F0AAFB20B908BD0221F8E70121F6E7B1
:102BF0004FF0FF30F7E790F82A30012B0BD010B5DB
:102C0000044690F82C101C3000F067FC28B9012312
:102C100084F82A3010BD002070474FF0FF30F9E7EC
:102C200008B5F2EE097AB4EEE70AF1EE10FA39D9F6
:102C3000F3EE0A7AB4EEE70AF1EE10FA38D9DFEDD6
:102C4000267AB4EEE70AF1EE10FA33D9DFED237AF3
:102C5000B4EEE70AF1EE10FA2ED9DFED217AB4EEE8
:102C6000E70AF1EE10FA29D9DFED1E7AB4EEE70A91
:102C7000F1EE10FA24D9DFED1C7AB4EEE70AF1EE9A
:102C800010FA1FD9DFED197AB4EEE70AF1EE10FA67
:102C90001AD9DFED177AB4EEE70AF1EE10FA15D87B
:102CA000092100E001211C3000F017FC80B908BDAB
:102CB0000221F8E70321F6E70421F4E70521F2E712
:102CC0000621F0E70721EEE70821ECE70A21EAE711
:102CD0004FF0FF30EBE700BF000050420000D04251
:102CE000000050430000D043004050440080CF44D7
:102CF0000020504508B590F82A30012B02D0FFF78C
:102D00006BFE08BDFFF78CFFFBE738B5054600F109
:102D10001C040121204600F061FC38BB0121204643
:102D200000F02EFC28BB0021204600F070FC18BBF0
:102D3000042385F82B300021204600F038FBF0B941
:102D40000021204600F0F8FAE0B9042385F82C3081
:102D50000021204600F0C1FBB8B90621204600F052
:102D60007CFBA8B9012385F8283038BD4FF0FF302F
:102D7000FBE74FF0FF30F8E74FF0FF30F5E74FF09B
:102D8000FF30F2E74FF0FF30EFE74FF0FF30ECE7B6
:102D90004FF0FF30E9E708B57D2909DDFA290DDD9F
:102DA000B1F5FA7F0CDDB1F57A7F0BDC042100E090
:102DB00001211C3000F051FB30B908BD0021F8E7BB
:102DC0000221F6E70621F4E74FF0FF30F5E708B5FA
:102DD0001C3000F0FCFB00B908BD4FF0FF30FBE7F2
:102DE00038B590F829300BB9002038BD044600F101
:102DF0001C0500F12B01284600F0F2FA38B9002139
:102E0000284600F0D4FA28B984F82900EDE74FF0FD
:102E1000FF30EAE74FF0FF30E7E7000010B582B07F
:102E20000C460DF107011C3000F0DAFA002832D10F
:102E300002469DF807300B2B30D8DFE803F0060E72
:102E40001114171A1D202326290B00232360104676
:102E500002B010BD134B2360F9E7134B2360F6E774
:102E6000124B2360F3E7124B2360F0E7114B236012
:102E7000EDE7114B2360EAE7104B2360E7E7104BC7
:102E80002360E4E70F4B2360E1E70F4B2360DEE7AD
:102E90000E4B2360DBE74FF0FF32D8E74FF0FF32F5
:102EA000D5E700BFCDCCCC3F000048410000D04169
:102EB000000050420000D042000050430000D043C8
:102EC000004050440080CF44002050450020D045B1
:102ED00010B582B00C460DF107011C3000F045FA28
:102EE000A0B99DF80730032B13D8DFE803F0020CDC
:102EF0000609094B236002B010BD084B2360FAE7B6
:102F0000074B2360F7E7074B2360F4E74FF0FF30F0
:102F1000F1E74FF0FF30EEE723DB793D23DBF93DAE
:102F200023DB793E23DBF93E10B582B00C460DF170
:102F300007011C3000F019FAA0B99DF80730032BE7
:102F400013D8DFE803F0020C06090223236002B065
:102F500010BD04232360FAE708232360F7E710235A
:102F60002360F4E74FF0FF30F1E74FF0FF30EEE77A
:102F700010B582B00C4669461C3000F021FB50B9F8
:102F8000BDF900302380BDF902306380BDF9043003
:102F9000A38002B010BD4FF0FF30FAE730B585B026
:102FA00005460C460023019302A91C3000F008FBE3
:102FB00060BB01A92846FFF78BFF50BBBDF9083065
:102FC00007EE103AB8EEC77ADDED017A27EE277AE0
:102FD000BDEEC77A84ED007ABDF90A3007EE103AEB
:102FE000B8EEC77A27EE277ABDEEC77A84ED017A6C
:102FF000BDF90C3007EE103AB8EEC77A67EE877A63
:10300000FDEEE77AC4ED027A05B030BD4FF0FF3037
:10301000FAE74FF0FF30F7E738B590F82A300BB9F0
:10302000002038BD044600F11C0500F12C012846A3
:1030300000F06CFA38B90021284600F04EFA28B9A1
:1030400084F82A00EDE74FF0FF30EAE74FF0FF3059
:10305000E7E710B50446FFF7C3FE50B92046FFF777
:10306000DBFF48B984F82B0084F82C0084F8280092
:1030700010BD4FF0FF30FBE74FF0FF30F8E70000E6
:1030800010B582B00C460DF107011C3000F03EFA7D
:1030900000282FD102469DF807300A2B2DD8DFE8F3
:1030A00003F0060B0E1114171A1D2023260000230F
:1030B0002360104602B010BD114B2360F9E7114B9D
:1030C0002360F6E7104B2360F3E7104B2360F0E733
:1030D0000F4B2360EDE70F4B2360EAE70E4B2360B5
:1030E000E7E70E4B2360E4E70D4B2360E1E70D4B70
:1030F0002360DEE74FF0FF32DBE74FF0FF32D8E727
:10310000000048410000D041000050420000D04281
:10311000000050430000D043004050440080CF44A2
:10312000002050450020D04510B582B00C460DF16E
:1031300007011C3000F0AAF9C8B99DF80730062B2A
:1031400018D8DFE803F008040B170E1711000B4B1B
:10315000236002B010BD0A4B2360FAE7094B2360DD
:10316000F7E7094B2360F4E7084B2360F1E74FF0E2
:10317000FF30EEE74FF0FF30EBE700BF00008C4080
:1031800000000C4100008C4100000C4200008C4209
:1031900010B582B00C460DF107011C3000F076F935
:1031A000E0B99DF80730062B1BD8DFE803F00804D0
:1031B0000B1A0F1A13007D23236002B010BDFA23EF
:1031C0002360FAE74FF4FA732360F6E74FF47A735B
:1031D0002360F2E74FF4FA632360EEE74FF0FF302D
:1031E000EBE74FF0FF30E8E710B582B00C466946D8
:1031F0001C3000F0DEF950B9BDF900302380BDF974
:1032000002306380BDF90430A38002B010BD4FF0DE
:10321000FF30FAE730B585B005460C4602A91C30F0
:1032200000F0C7F960BB01A92846FFF77DFF50BB3E
:10323000BDF9083007EE103AB8EEC77ADDED017A35
:1032400027EE277ABDEEC77A84ED007ABDF90A3001
:1032500007EE103AB8EEC77A27EE277ABDEEC77AA6
:1032600084ED017ABDF90C3007EE103AB8EEC77A5A
:1032700067EE877AFDEEE77AC4ED027A05B030BDDD
:103280004FF0FF30FAE74FF0FF30F7E700B583B0BB
:103290008DF8072001230DF107021C3000F047F8DC
:1032A00010B903B05DF804FB4FF0FF30F9E7000000
:1032B000002829D010B504460B6803604A684260B4
:1032C0008A6882600A7B02730A6902614A69426104
:1032D0008A698261114A0262114AC2614062B3B1D5
:1032E0009847B8B9A368022B00D010BD94F82830D5
:1032F000002BFAD10C2212212046FFF7C7FF00282D
:10330000F3D04FF0FF30F0E74FF0FF3070474FF051
:10331000FF30EAE74FF0FF30E7E700BFA12A0008DF
:10332000AB2A000810B544688068A04710BD10B5EE
:1033300004688068A04710BD30B583B004460D46D0
:10334000012301AA1021FFF7EDFF08B103B030BD42
:103350009DF8043065F383038DF80430012301AA3E
:1033600010212046FFF7E3FFF0E710B582B00C46CE
:10337000012301AA1021FFF7D5FF9DF80430C3F304
:103380008103032B10D8DFE803F00206090C0023A9
:10339000237002B010BD01232370FAE702232370CB
:1033A000F7E703232370F4E704232370F1E730B534
:1033B00083B004460D46012301AA1021FFF7B2FF96
:1033C00008B103B030BD9DF8043065F307138DF8E4
:1033D0000430012301AA10212046FFF7A8FFF0E7DF
:1033E00010B582B00C46012301AA1021FFF79AFF05
:1033F0009DF804301B090B2B2CD8DFE803F0060ADC
:103400000D101316191C1F2225280023237002B04B
:1034100010BD01232370FAE702232370F7E703238B
:103420002370F4E704232370F1E705232370EEE70C
:1034300006232370EBE707232370E8E708232370B4
:10344000E5E709232370E2E70A232370DFE70B2374
:103450002370DCE70C232370D9E730B583B0044632
:103460000D46012301AA1121FFF75CFF08B103B04B
:1034700030BD9DF8043065F343038DF8043001231B
:1034800001AA11212046FFF752FFF0E710B582B0E4
:103490000C46012301AA1121FFF744FF9DF80430D7
:1034A000C3F34203062B15D8DFE803F004080B141E
:1034B0000E1411000023237002B010BD01232370ED
:1034C000FAE702232370F7E704232370F4E70623C7
:1034D0002370F1E707232370EEE730B583B004468D
:1034E0000D46012301AA1121FFF71CFF08B103B00B
:1034F00030BD9DF8043065F307138DF804300123C7
:1035000001AA11212046FFF712FFF0E710B582B0A3
:103510000C46012301AA1121FFF704FF9DF8043096
:103520001B090A2B29D8DFE803F0060A0D10131631
:10353000191C1F2225000023237002B010BD012397
:103540002370FAE702232370F7E703232370F4E7DD
:1035500004232370F1E705232370EEE7062323708D
:10356000EBE707232370E8E708232370E5E7092347
:103570002370E2E70A232370DFE70B232370DCE7E5
:1035800030B583B004460D46012301AA1221FFF78E
:10359000C9FE08B103B030BD9DF8043065F3861351
:1035A0008DF80430012301AA12212046FFF7BFFE47
:1035B000F0E708B50A4606232221FFF7B3FE08BD4F
:1035C00008B50A4606232821FFF7ACFE08BD08B55A
:1035D0000A4601230F21FFF7A5FE08BD30B583B0D1
:1035E00004460D46012301AA1221FFF79BFE08B1F4
:1035F00003B030BD9DF8043065F382038DF80430CC
:10360000012301AA12212046FFF791FEF0E730B511
:1036100083B004460D46012301AA0A21FFF782FE6A
:1036200008B103B030BD9DF8043065F302038DF896
:103630000430012301AA0A212046FFF778FEF0E7B3
:1036400070B58CB0044600230793BF238DF820305B
:10365000334B0593334B0693334B0A93334B099308
:10366000334B0B9305A93348FDF746FE00284BD199
:103670000DF113012F48FDF72BFD0646002846D11A
:103680009DF81330BC2B45D12A4D69462846FDF7DD
:103690000FFC9DF800209DF8013042EA43039DF89D
:1036A000021043EA8103EB62234B1D60234B6B63E3
:1036B00014F0010F01D0012A0DD014F0040F03D033
:1036C0009DF80230012B11D016B914F0020F24D14D
:1036D00030460CB070BD2846194BEB63174B1B6886
:1036E00098470028E9D06FF00406EDE7114B154A22
:1036F0005A645B6B1B68104A10689847064600289E
:10370000E3D06FF00406E3E76FF00606E0E76FF042
:103710000606DDE76FF00606DAE76FF00406D7E786
:10372000FD6F0008156F0008896F00084D6F0008D5
:10373000C56F0008180C0020181800202800002071
:103740000000002014000020F0B58DB004460023D6
:103750000793BB238DF82030344B0593344B0693ED
:10376000344B0A93344B0993344B0B9305A93448DB
:10377000FEF712F900284DD10DF113013048FDF785
:10378000D7FF0646002848D19DF81330B12B47D10A
:103790002C4D05F1540769463846FDF7CDFE9DF8DE
:1037A00000209DF8013042EA43039DF8021043EAED
:1037B00081032B63244B5F60244BAB6314F0010F38
:1037C00001D0012A0DD014F0020F03D09DF8013072
:1037D000012B11D016B914F0040F24D130460DB0CE
:1037E000F0BD1B4BAB64194B1B683846984700284B
:1037F000E9D06FF00406EDE7124B164ADA649B6BD2
:103800001B68114A5068984706460028E3D06FF0BD
:103810000406E3E76FF00606E0E76FF00606DDE773
:103820006FF00606DAE76FF00406D7E7FD6F0008D1
:10383000156F0008896F00084D6F0008C56F0008FC
:103840006C0C0020180C00201818002060000020CC
:10385000380000204C0000202DE9F04184B00E46D5
:10386000074620B101282CD06FF001006FE0084618
:10387000FFF7E6FE00286DD13C4B03EB87035B6B43
:10388000DB6869463A4A52F827009847002864D115
:103890009DF80030012B0BD0B8469DF80230012B6B
:1038A00009D09DF80130012B08D00025012431E01A
:1038B0004FF00108F1E748F00408F2E748F0020889
:1038C000F3E70846FFF740FF002849D1274B03EBF9
:1038D00087035B6BDB686946254A52F827009847E7
:1038E000002840D19DF80030012B0CD04FF000088B
:1038F0009DF80230012B08D09DF80130012BD4D166
:1039000048F00208D1E7B846F2E748F00408F3E7C8
:1039100064000135022D19D834EA0603F8D134EADF
:103920000803F5D1134B53F8242007EB47031A443F
:103930000E4B03EB8203DB6B1B680D4A52F827002A
:1039400098470028E4D06FF0040000E0002004B0A5
:10395000BDE8F0814FF0FF30F9E76FF00600F6E7C1
:103960004FF0FF30F3E76FF00600F0E7180C00208F
:1039700018180020B0B5000801281BD808B5104B56
:1039800003EB8003DB6A31EA030316D10D4B53F8D6
:10399000212000EB40031A44094B03EB8203DB6B4D
:1039A0001B68094A52F82000984700B908BD6FF01B
:1039B0000400FBE76FF0010070476FF00100F5E7CE
:1039C000180C0020B0B500081818002001281DD8D8
:1039D00008B50B461146104A02EB8002D26A33EA60
:1039E000020216D10D4A52F8232000EB40031A447C
:1039F000094B03EB8203DB6B9B68094A52F82000FA
:103A0000984700B908BD6FF00400FBE76FF00100B4
:103A100070476FF00100F5E7180C0020B0B5000802
:103A20001818002001281DD808B50B461146104A69
:103A300002EB8002D26A33EA020216D10D4A52F832
:103A4000232000EB40031A44094B03EB8203DB6B9A
:103A50001B69094A52F82000984700B908BD6FF069
:103A60000400FBE76FF0010070476FF00100F5E71D
:103A7000180C0020B0B500081818002070B590B0E0
:103A8000044600230B93D7238DF83030334B099332
:103A9000334B0A93334B0E93334B0D93334B0F93AE
:103AA00009A93348FFF704FC00284BD10DF123018D
:103AB0002F48FFF78CF90646002846D19DF82330A1
:103AC0006A2B45D12A4D01A92846FEF70DFF9DF826
:103AD00005209DF8043042EA43039DF8061043EAAE
:103AE00081032B63234B1D60234BEB6314F0010F09
:103AF00001D0012A0DD014F0020F03D09DF804303C
:103B0000012B11D016B914F0040F24D1304610B097
:103B100070BD2846194BAB64174B1B6898470028AB
:103B2000E9D06FF00406EDE7114B154ADA64DB6B60
:103B30001B68104A1068984706460028E3D06FF0CB
:103B40000406E3E76FF00606E0E76FF00606DDE740
:103B50006FF00606DAE76FF00406D7E7FD6F00089E
:103B6000156F0008896F00084D6F0008C56F0008C9
:103B7000980C00202018002020010020D8000020F0
:103B8000FC000020F0B591B0044600230B933323D2
:103B90008DF830302D4B09932D4B0A932D4B0E93FE
:103BA0002D4B0D932D4B0F9309A92D48FEF786FC45
:103BB00000283BD10DF123012948FEF75BF90646A9
:103BC000002836D19DF82330332B35D1254D05F112
:103BD0006C0701A93846FDF7F7FF9DF805309DF801
:103BE000042043EA42039DF8061043EA81036B6315
:103BF0001D4B5F601D4B2B6414F0020F01D0012A96
:103C000009D014F0010F1AD116B914F0040F19D10C
:103C1000304611B0F0BD164BAB65144B1B683846EF
:103C200098470028EDD06FF00406EDE76FF0060628
:103C3000EEE76FF00606EBE76FF00606E8E76FF0D9
:103C40000406E5E76FF00406E2E700BFFD6F000839
:103C5000156F0008896F00084D6F0008C56F0008D8
:103C6000040D0020980C002020180020C80000201F
:103C7000A4000020F0B591B0044600230B933D232F
:103C80008DF830302D4B09932D4B0A932D4B0E930D
:103C90002D4B0D932D4B0F9309A92D48FEF748FC92
:103CA00000283BD10DF123012948FEF76FFB0646A2
:103CB000002836D19DF82330402B35D1254D05F114
:103CC000980701A93846FDF791FF9DF805309DF84A
:103CD000042043EA42039DF8062043EA8203AB63D3
:103CE0001D4B9F601D4B6B6414F0040F01D0012A23
:103CF00009D014F0020F1AD116B914F0010F19D11E
:103D0000304611B0F0BD164BAB66144B1B683846FD
:103D100098470028EDD06FF00406EDE76FF0060637
:103D2000EEE76FF00606EBE76FF00606E8E76FF0E8
:103D30000406E5E76FF00406E2E700BFFD6F000848
:103D4000156F0008896F00084D6F0008C56F0008E7
:103D5000300D0020980C0020201800209400002036
:103D6000700000202DE9F04188B004460F4601287C
:103D700031D0022857D010B16FF0010099E0084609
:103D8000FFF77CFE002840F09780544B03EB840340
:103D9000DB6BDB6801A9524A52F8240098470028DF
:103DA00040F08D809DF80430012B0BD0A0469DF88B
:103DB0000530012B09D09DF80630012B08D00026D4
:103DC000012559E04FF00208F1E748F00108F2E759
:103DD00048F00408F3E70846FFF7D4FE002871D145
:103DE0003E4B03EB8403DB6BDB6801A93C4A52F8D2
:103DF00024009847002868D19DF80430012B0CD08E
:103E00004FF000089DF80530012B09D09DF80630D1
:103E1000012BD4D148F00408D1E74FF00208F1E7B4
:103E200048F00108F2E70846FFF724FF00284FD1C9
:103E30002A4B03EB8403DB6BDB6801A9284A52F8A9
:103E400024009847002846D19DF80430012B0CD05F
:103E50004FF000089DF80530012B08D09DF8063082
:103E6000012BACD148F00408A9E7A046F2E748F0DE
:103E70000108F3E76D000136022E19D835EA070371
:103E8000F8D135EA0803F5D1164B53F8252004EB99
:103E900044031A44114B03EB82039B6C1B68104ACA
:103EA00052F8240098470028E4D06FF0040000E0A6
:103EB000002008B0BDE8F0814FF0FF30F9E76FF067
:103EC0000600F6E74FF0FF30F3E76FF00600F0E78B
:103ED0004FF0FF30EDE76FF00600EAE7980C0020A6
:103EE00020180020C4B5000802281BD808B5104BC4
:103EF00003EB80031B6B31EA030316D10D4B53F820
:103F0000212000EB40031A44094B03EB82039B6C16
:103F10001B68094A52F82000984700B908BD6FF0A5
:103F20000400FBE76FF0010070476FF00100F5E758
:103F3000980C0020C4B500082018002002281DD8C5
:103F400008B50B461146104A02EB8002126B33EAA9
:103F5000020216D10D4A52F8232000EB40031A4406
:103F6000094B03EB82039B6CDB69094A52F8200082
:103F7000984700B908BD6FF00400FBE76FF001003F
:103F800070476FF00100F5E7980C0020C4B50008F9
:103F90002018002002281DD808B50B461146104AEB
:103FA00002EB8002126B33EA020216D10D4A52F87C
:103FB000232000EB40031A44094B03EB82039B6C64
:103FC0009B68094A52F82000984700B908BD6FF075
:103FD0000400FBE76FF0010070476FF00100F5E7A8
:103FE000980C0020C4B500082018002002281DD815
:103FF00008B50B461146104A02EB8002126B33EAF9
:10400000020216D10D4A52F8232000EB40031A4455
:10401000094B03EB82039B6CDB68094A52F82000D2
:10402000984700B908BD6FF00400FBE76FF001008E
:1040300070476FF00100F5E7980C0020C4B5000848
:104040002018002002281DD808B50B461146104A3A
:1040500002EB8002126B33EA020216D10D4A52F8CB
:10406000232000EB40031A44094B03EB82039B6CB3
:104070005B69094A52F82000984700B908BD6FF003
:104080000400FBE76FF0010070476FF00100F5E7F7
:10409000980C0020C4B500082018002010B5044674
:1040A0000E4B18784FF47A73B3FBF0F30C4A106898
:1040B000B0FBF3F000F024FA68B90F2C01D901200D
:1040C0000AE0002221464FF0FF3000F0D7F9034B01
:1040D0005C60002000E0012010BD00BF3001002026
:1040E000240A002008B50B4B1A6842F400721A60CB
:1040F0001A6842F480621A601A6842F480721A6088
:10410000032000F0A9F90020FFF7C8FF02F0D8FD56
:10411000002008BD003C0240034A1168034B1B7895
:104120000B441360704700BF2C18002030010020A2
:10413000014B1868704700BF2C1800204A4B5A6882
:1041400022F440325A605A6841680A435A60026851
:10415000536823F48073536002685368016943EA2B
:10416000012353600268536823F040735360026870
:10417000536881680B4353600268936823F40063BB
:10418000936002689368C1680B439360826A374BFF
:104190009A4257D00268936823F070639360026874
:1041A0009368816A0B4393600268936823F04053DD
:1041B000936002689368C16A0B43936002689368D6
:1041C00023F00203936002689368017E43EA41038F
:1041D000936090F82030002B3FD00268536843F47E
:1041E000006353600268536823F4604353600168BE
:1041F0004B68426A013A43EA42334B600268D36A31
:1042000023F47003D3620168CB6AC269013A43EABE
:104210000253CB620268936823F4007393600268D0
:10422000936890F8301043EA4123936002689368E2
:1042300023F48063936002689368416943EA8123B1
:10424000936070470268936823F07063936002681C
:10425000936823F040539360B0E70268536823F4F7
:1042600000635360CAE700BF002301400100000F54
:1042700038B310B50446036C43B1236C13F0100F30
:104280000BD00120002384F83C3010BD02F038FD33
:104290000023636484F83C30EFE7236C23F48853F5
:1042A00023F0020343F0020323642046FFF746FF96
:1042B00000206064236C23F0030343F001032364B4
:1042C000E0E701207047000030B482B00023019382
:1042D00090F83C30012B00F0B780012380F83C308F
:1042E0000B68092B3ED90568EA689BB203EB4303D0
:1042F0001E3B072404FA03F322EA0303EB6005687C
:10430000EA688C680B8803EB43031E3B04FA03F353
:104310001343EB604B68062B3AD805686A6B03EBD6
:104320008303053B1F2404FA03F322EA03036B63B0
:1043300005686A6B4B6803EB8303053B0C8804FA42
:1043400003F313436B630268404B9A4250D00268F8
:104350003E4B9A4255D0002380F83C30184602B0BC
:1043600030BC704705682A699BB203EB43030724FE
:1043700004FA03F322EA03032B6105682A698C68B7
:104380000B8803EB430304FA03F313432B61C1E7E8
:104390000C2B16D805682A6B03EB8303233B1F24E1
:1043A00004FA03F322EA03032B6305682A6B4B68C4
:1043B00003EB8303233B0C8804FA03F313432B63BF
:1043C000C1E70568EA6A03EB8303413B1F2404FA53
:1043D00003F322EA0303EB620568EA6A4B6803EB26
:1043E0008303413B0C8804FA03F31343EB62AAE70F
:1043F0000B68122BABD1164A536843F48003536009
:10440000A5E70B68103B012BA5D8114A536843F46C
:10441000000353600B68102B9DD10E4B1B6802F1FB
:10442000467202F52E3202F28332A2FB03239B0C6A
:1044300003EB83035B00019302E0019B013B0193CB
:10444000019B002BF9D186E7022088E7002001407C
:1044500000230140240A0020074AD36823F4E063C4
:104460001B041B0C000200F4E060034343F0BF6335
:1044700043F40033D360704700ED00E030B4174BD5
:10448000DB68C3F30223C3F10704042C28BF042410
:104490001D1D062D18D9033B4FF0FF3505FA04F416
:1044A00021EA0401994005FA03F322EA03031943C0
:1044B00000280BDB0901C9B200F1604000F5614042
:1044C00080F8001330BC70470023E5E700F00F00D0
:1044D0000901C9B2024B1954F4E700BF00ED00E036
:1044E00014ED00E0002807DB00F01F024009012363
:1044F0009340024A42F82030704700BF00E100E0DC
:104500000138B0F1807F0AD2064B5860064AF0218C
:1045100082F823100020986007221A60704701205B
:10452000704700BF10E000E000ED00E058B110B5AA
:10453000044643791BB101236371002010BD037150
:1045400002F0F6FBF7E70120704790F83530DBB258
:10455000022B03D08023436501207047052380F898
:1045600035300268136823F00103136000207047A0
:1045700000230F2B00F2C780F0B583B039E004228E
:1045800000E00022B2403A4302345F4E46F8242055
:104590005E4A1468EA4324EA05064F6817F4803F30
:1045A00001D045EA0406594C2660646802EA040614
:1045B0004F6817F4003F01D045EA0406534C66608B
:1045C000A46802EA04064F6817F4801F01D045EA88
:1045D00004064E4CA660E46822404E6816F4001FA4
:1045E00001D045EA0402494CE26001330F2B00F28E
:1045F000888001229A400C6804EA020532EA040429
:10460000F3D14C68661E012E03D9112C01D0122C57
:1046100012D186685F000324BC4026EA0406CC68F9
:10462000BC4034438460466826EA02064C68C4F302
:1046300000129A4032434260C7685E000324B440CF
:10464000E24327EA04078C68B4403C43C4604C68EA
:10465000022C01D0122C13D1DF08083750F827E0C4
:1046600003F007044FEA840C0F2404FA0CF42EEA3A
:10467000040E0C6904FA0CF444EA0E0440F82740D6
:10468000046814404A6802F00302B2402243026008
:104690004A6812F0805FA8D0002201921C4A546C34
:1046A00044F480445464526C02F480420192019AB2
:1046B0009C08A61C144A52F8267003F003029600C8
:1046C0000F22B24027EA0207124A90423FF459AF44
:1046D00002F5806290420ED002F5806290420CD0CA
:1046E00002F5806290420AD002F5806290423FF467
:1046F00046AF072246E7012244E7022242E70322AF
:1047000040E703B0F0BD704700380140003C014075
:10471000003802400000024000230F2B7CD8F0B587
:104720002DE0042600E0002606FA04F4AC4257D03F
:1047300005685C00032606FA04F425EA0405056012
:1047400023FA06F5083550F8256003F007074FEA0D
:10475000870C0F2707FA0CF726EA070640F82560B2
:10476000C56825EA0405C560456825EA020242607D
:10477000826822EA0404846001330F2B4BD80122A3
:104780009A4002EA010732EA0104F5D14FEA930C9C
:104790000CF10205214C54F8255003F00304A40049
:1047A0000F2606FA04FE0EEA05051D4EB042BAD0E9
:1047B00006F58066B0420DD006F58066B0420BD09B
:1047C00006F58066B04209D006F58066B042A8D0F2
:1047D0000726A9E70126A7E70226A5E70326A3E700
:1047E000104C256825EA07052560656825EA070558
:1047F0006560A56825EA0705A560E56825EA07075D
:10480000E760064D0CF1020455F8246026EA0E0616
:1048100045F824608CE7F0BD704700BF00380140C8
:1048200000000240003C01400AB181617047090468
:104830008161704708B5054B5B69034200D108BD33
:10484000024B586101F06EFEF9E700BF003C0140E9
:1048500003685A6912F4806F01D1002070476FF429
:1048600080625A6100230363202280F83D2080F893
:104870003E30026C42F00402026480F83C300120B9
:1048800070472DE9F04107460D4690461E4622E04E
:10489000FFF74EFC069BC01AB04200D8DEB90023D9
:1048A0003B63202287F83D2087F83E303A6C42F087
:1048B00020023A6487F83C3001201AE03B689C698A
:1048C00025EA0404A4B2B4FA84F46409A0450FD123
:1048D000B6F1FF3FDCD1C5F30743012BEED13B68B6
:1048E0005C6925EA0404A4B2B4FA84F46409EDE72F
:1048F0000020BDE8F0812DE9F04105460E4617463F
:1049000098463DE01A6842F400721A602B686FF412
:1049100080625A6100232B63202285F83D2085F8B0
:104920003E302A6C42F004022A6485F83C300120B3
:1049300034E0FFF7FDFBA0EB0800B84200D8FFB958
:1049400000232B63202285F83D2085F83E302A6C19
:1049500042F020022A6485F83C3001201EE02B68DA
:104960009C6926EA0404A4B2003C18BF0124A4B147
:104970002B685A6912F4806FC4D1B7F1FF3FD8D1C8
:10498000C6F30743012BEAD12B685C6926EA0404CD
:10499000A4B2003C18BF0124E9E70020BDE8F08183
:1049A00070B504460D46164623685B6913F0800F08
:1049B0001CD12046FFF74CFFD0B9B5F1FF3FF3D033
:1049C000FFF7B6FB801BA84201D8002DECD10023D5
:1049D0002363202284F83D2084F83E30226C42F08C
:1049E0002002226484F83C30012000E0002070BDE9
:1049F0000120FCE72DE9F04385B004460D469146C1
:104A00001F46DDF830800D9E0368196841F48071FF
:104A100019600096434600224FF00111FFF731FF65
:104A200060B9236805F0FE051D61334642462649FC
:104A30002046FFF760FF68B1012008E023681B688B
:104A400013F4807F02D04FF400732364032005B079
:104A5000BDE8F0830023039323685A6903929B699E
:104A60000393039B324641462046FFF799FF30B936
:104A7000012F0FD123685FFA89F61E61E7E7236CE7
:104A8000042B01D00120E2E72268136843F400738D
:104A90001360F7E723684FEA19221A61324641464C
:104AA0002046FFF77DFF20B923685FFA89F61E6173
:104AB000CDE7236C042B01D00120C8E722681368DE
:104AC00043F400731360F7E7020001002DE9F0479B
:104AD00084B004460D46164699460C9FDDF8348096
:104AE0000268136843F4806313600368196841F433
:104AF00080711960CDF800803B4600224FF0011113
:104B0000FFF7BFFE70B95FFA85FA236805F0FE056E
:104B10001D6143463A4641492046FFF7ECFE68B125
:104B2000012008E023681B6813F4807F02D04FF453
:104B300000732364032004B0BDE8F08700230393CF
:104B400023685A6903929B690393039B4246394643
:104B50002046FFF725FF80B9B9F1010F18D123686E
:104B6000F6B21E61424639462046FFF719FF68B388
:104B7000236C042B24D00120DDE7236C042B01D00F
:104B80000120D8E72268136843F400731360F7E745
:104B90002368320A1A61424639462046FFF700FF71
:104BA00018B92368F6B21E61DCE7236C042B01D030
:104BB0000120C0E72268136843F400731360F7E72D
:104BC0002268136843F400731360D4E72268136803
:104BD00043F480731360CDF800803B4600224FF011
:104BE00001112046FFF74DFE68B922684AF0010323
:104BF000136143463A4609492046FFF77CFE0028E8
:104C000099D0012097E723681B6813F4807F02D0B6
:104C10004FF40073236403208DE700BF02000100FE
:104C200070B504460D46164623685B6913F0040F01
:104C30001CD12046FFF70CFED0B9B5F1FF3FF3D0F1
:104C4000FFF776FA801BA84201D8002DECD1002393
:104C50002363202284F83D2084F83E30226C42F009
:104C60002002226484F83C30012000E0002070BD66
:104C70000120FCE770B505460C4616462B685969BD
:104C800011F0400F29D1596911F0100F15D1FFF71C
:104C90004FFA801BA04201D8002CEFD100232B63D8
:104CA000202285F83D2085F83E302A6C42F0200213
:104CB0002A6485F83C30012070BD6FF010025A6103
:104CC00000232B63202285F83D2085F83E302A6C96
:104CD0002A6485F83C300120EEE70020ECE77047BD
:104CE000002800F0CC80F8B5044690F83D30002B49
:104CF00077D0242384F83D302268136823F0010321
:104D000013602268136843F4004313602268136839
:104D100023F40043136000F017FE62685A4B9A4276
:104D200064D85A4B98428CBF00230123002B40F0DB
:104D3000A880574DA5FB0035AF0C2668716821F09F
:104D40003F0141EA9541716021680B6A23F03F03FE
:104D500065684D4A95424FD87A1C13430B6225680B
:104D6000E96921F44F4121F0FF016368464A93420B
:104D70004CD801385B00B0FBF3F0013040F6FC7317
:104D8000184278D0C0F30B030B43EB6121680B682A
:104D900023F0C003E269206A024313430B602168D9
:104DA0008B6823F4034323F0FF032269E068024386
:104DB00013438B602168CB6823F0FF036269A0690D
:104DC00002431343CB602268136843F0010313606E
:104DD00000202064202384F83D30206384F83E00C6
:104DE000F8BD80F83C30FFF77AFF82E7294B984204
:104DF0008CBF0023012399E74FF4967202FB07F260
:104E0000254DA5FB025292090132A6E7A268BAB964
:104E1000461E03EB4307B6FBF7F60136C6F30B0657
:104E2000B6FA86F6760946BBC2B9421E03EB4303C7
:104E3000B2FBF3F20132C2F30B0242F40043A3E7E8
:104E4000461E03EB830707EB8707B6FBF7F6013631
:104E5000C6F30B06B6FA86F67609E4E7421E03EBC4
:104E6000830303EB8303B2FBF3F20132C2F30B02C1
:104E700042F4404388E7042386E7012384E70120C6
:104E800070470120ACE700BFA08601007F841E00B0
:104E900083DE1B43FF083D00D34D62107047A8B16D
:104EA00010B50446242380F83D300268136823F0CF
:104EB00001031360FFF7F2FF0020206484F83D0037
:104EC000206384F83E0084F83C0010BD0120704748
:104ED0002DE9F04383B004460F46904699460C9E58
:104EE000FFF726F9054694F83D00C0B2202803D00C
:104EF000022003B0BDE8F0830095192301224B493D
:104F00002046FFF7BEFC002840F0898094F83C3032
:104F1000012B00F08680012384F83C3023681A6856
:104F200012F0010F03D11A6842F001021A602268E0
:104F3000136823F400631360212384F83D30402379
:104F400084F83E30002323640A9B6362BDF82C3052
:104F50006385638D2385364BE362019500964B464E
:104F6000424639462046FFF745FD00285BD1238D98
:104F7000002B35D02A4631462046FFF711FD20BBD5
:104F8000626A236812781A61616A4B1C6362228D1F
:104F9000013A92B22285638D9BB2013B9BB263853D
:104FA0002368586910F0040FE1D0002ADFD04A7856
:104FB0001A61636A01336362238D013B2385638D2C
:104FC0009BB2013B9BB26385D1E7236C042B01D0DC
:104FD00001208EE72268136843F400731360F7E73B
:104FE0002A4631462046FFF71BFE50B1236C042BA6
:104FF00001D001207DE72268136843F40073136039
:10500000F7E72268136843F400731360202384F8E1
:105010003D30002384F83E3084F83C3069E70220BC
:1050200067E7022065E7012063E700BF0200100088
:105030000000FFFF2DE9F04387B004460F4690467D
:105040009946109EFFF774F8054694F83D00C0B2EB
:10505000202804D00227384607B0BDE8F083009529
:10506000192301229D492046FFF70BFC002840F040
:10507000448194F83C30012B00F04181012384F8F5
:105080003C3023681A6812F0010F03D11A6842F00D
:1050900001021A602268136823F40063136022235C
:1050A00084F83D30402384F83E30002323640E9B77
:1050B0006362BDF83C306385638D2385884BE36272
:1050C000019500964B46424639462046FFF7FEFCC6
:1050D0000746002840F01581238D5BB902932368B1
:1050E0005A6902929A690292029A1A6842F400720C
:1050F0001A6098E0012B0AD0022B1AD000230593E6
:1051000023685A6905929B690593059B8BE0226889
:10511000136823F4806313600023039323685A69A0
:1051200003929A690392039A1A6842F400721A6011
:1051300079E02268136823F480631360226813689F
:1051400043F4006313600023049323685A690492B4
:105150009B690493049B66E02A4631462046FFF78C
:1051600089FD002840F0CF8023681A69636A1A70AD
:10517000636A01336362238D013B2385638D9BB298
:10518000013B9BB263854EE00095334600225549B2
:105190002046FFF776FB002840F0B78022681368AE
:1051A00043F40073136023681A69636A1A70626AB1
:1051B000531C6362238D013B2385638D9BB2013BAE
:1051C0009BB2638523681B695370636A0133636212
:1051D000238D013B2385638D9BB2013B9BB263858D
:1051E00021E02268136843F40073136023681A698E
:1051F000636A1A70626A531C6362238D013B2385C4
:10520000638D9BB2013B9BB2638523681B6953701E
:10521000636A01336362238D013B2385638D9BB2F7
:10522000013B9BB26385238D002B5DD0032B2BD8D4
:10523000012B91D0022BA7D000953346002229499B
:105240002046FFF71EFB002861D12268136823F473
:105250008063136023681A69636A1A70636A013392
:105260006362238D013B2385638D9BB2013B9BB21F
:1052700063850095334600221A492046FFF701FB5B
:105280000028AED00127E6E62A4631462046FFF741
:10529000F1FC00283DD123681A69636A1A70626ABA
:1052A000531C6362238D013B2385638D9BB2013BBD
:1052B0009BB263852368596911F0040FB3D01B6951
:1052C0005370636A01336362238D013B2385638DD1
:1052D0009BB2013B9BB26385A5E700BF02001000B3
:1052E0000000FFFF04000100202384F83D3000236C
:1052F00084F83E3084F83C30ADE60227ABE6022766
:10530000A9E60127A7E60127A5E60127A3E60127CD
:10531000A1E601279FE600BF90F83D007047006CB2
:1053200070470000002800F0D98170B582B00446B3
:10533000036813F0010F3BD0A64B9B6803F00C03EE
:10534000042B2CD0A34B9B6803F00C03082B21D01B
:105350006368B3F5803F4FD0B3F5A02F52D09D4B7B
:105360001A6822F480321A601A6822F480221A60C5
:105370006368002B50D0FEF7DBFE0546954B1B689B
:1053800013F4003F14D1FEF7D3FE401B6428F5D977
:105390000320AAE18F4B5B6813F4800FD8D08D4BAC
:1053A0001B6813F4003F03D06368002B00F0988162
:1053B000236813F0020F54D0864B9B6813F00C0F38
:1053C0003ED0844B9B6803F00C03082B33D0E3687A
:1053D000002B67D0804B01221A60FEF7A9FE05461C
:1053E0007C4B1B6813F0020F53D1FEF7A1FE401B4C
:1053F0000228F5D9032078E1764A136843F4803314
:105400001360B5E7734B1A6842F480221A601A6879
:1054100042F480321A60ABE7FEF78AFE05466D4B18
:105420001B6813F4003FC3D0FEF782FE401B6428C4
:10543000F5D9032059E1674B5B6813F4800FC6D19F
:10544000644B1B6813F0020F03D0E368012B40F09C
:105450004981604A136823F0F803216943EAC103D4
:105460001360236813F0080F40D0636963B35B4B8C
:1054700001221A60FEF75CFE0546564B5B6F13F087
:10548000020F33D1FEF754FE401B0228F5D903204A
:105490002BE1504A136823F0F803216943EAC10362
:1054A0001360DEE74C4B00221A60FEF741FE054612
:1054B000484B1B6813F0020FD3D0FEF739FE401B98
:1054C0000228F5D9032010E1444B00221A60FEF7B0
:1054D0002FFE05463F4B5B6F13F0020F06D0FEF721
:1054E00027FE401B0228F5D90320FEE0236813F0B5
:1054F000040F78D0374B1B6C13F0805F0DD1002365
:105500000193344B1A6C42F080521A641B6C03F006
:1055100080530193019B012500E00025304B1B685F
:1055200013F4807F21D0A368012B32D0052B36D015
:10553000284B1A6F22F001021A671A6F22F0040238
:105540001A67A368002B34D0FEF7F2FD0646214B04
:105550001B6F13F0020F45D1FEF7EAFD801B41F2ED
:1055600088339842F3D90320BFE01D4A136843F4FF
:1055700080731360FEF7DCFD0646194B1B6813F4BD
:10558000807FD0D1FEF7D4FD801B0228F5D90320FF
:10559000ABE0104A136F43F001031367D1E70D4BE3
:1055A0001A6F42F004021A671A6F42F001021A677A
:1055B000C7E7FEF7BDFD0646064B1B6F13F0020F53
:1055C00010D0FEF7B5FD801B41F288339842F3D925
:1055D00003208AE00038024000004742800E474224
:1055E00000700040E5B9A369002B7DD0464A92685F
:1055F00002F00C02082A51D0022B17D0434B002294
:105600001A60FEF795FD04463F4B1B6813F0007FC0
:1056100042D0FEF78DFD001B0228F5D9032064E07F
:10562000394A136C23F080531364DCE7374B0022B4
:105630001A60FEF77DFD0546334B1B6813F0007FB3
:1056400006D0FEF775FD401B0228F5D903204CE07B
:10565000E369226A1343626A43EA8213A26A520828
:10566000013A43EA0243E26A43EA0263264A53608C
:10567000264B01221A60FEF75BFD0446224B1B6895
:1056800013F0007F06D1FEF753FD001B0228F5D969
:1056900003202AE0002028E0002026E0012B26D06D
:1056A000194B5B6803F48001E269914221D103F058
:1056B0003F02216A8A421ED1616A47F6C0721A40CF
:1056C0008A421AD103F44032A16A8A4217D103F008
:1056D0007063E26A934214D1002006E00120704713
:1056E000012002E0012000E0002002B070BD012096
:1056F000FBE70120F9E70120F7E70120F5E70120AA
:10570000F3E70120F1E700BF0038024060004742A4
:10571000F8B52F4B9B6803F00C03042B53D0082BD8
:1057200053D12B4B5A6802F03F025B6813F4800F91
:1057300028D0274B5B68C3F3881358010021C01A97
:1057400061F100018E0146EA906687013C1A66EB22
:105750000105E90041EA5471E000C01841F100017F
:105760004B0243EAD0534402204619460023FBF77C
:1057700023FA174B5B68C3F3014301335B00B0FBB3
:10578000F3F023E0124B5B68C3F388135C01002540
:10579000E41A65F10005AE0146EA9466A701381BDC
:1057A00066EB0501CC0044EA5074C500E81844F1EA
:1057B00000018B0243EA90538402204619460023DD
:1057C000FBF7FAF9D5E7034800E00348F8BD00BF4E
:1057D0000038024000127A000024F400002800F093
:1057E0009B8070B50D4604464F4B1B6803F00F03BA
:1057F0008B4208D2CBB24C4A1370136803F00F03EC
:105800008B4240F08B80236813F0020F17D013F007
:10581000040F04D0454A936843F4E053936023682F
:1058200013F0080F04D0414A936843F46043936037
:105830003E4A936823F0F003A1680B43936023680A
:1058400013F0010F32D06368012B21D09A1E012A78
:1058500025D9364A126812F0020F61D033498A689E
:1058600022F0030213438B60FEF762FC06462F4BC7
:105870009B6803F00C036268B3EB820F16D0FEF74F
:1058800057FC801B41F288339842F0D9032042E054
:10589000264A126812F4003FE0D101203BE0234A7F
:1058A000126812F0007FD9D1012034E01E4B1B6832
:1058B00003F00F03AB4207D9EAB21B4B1A701B6807
:1058C00003F00F03AB422DD1236813F0040F06D071
:1058D000164A936823F4E053E1680B43936023680E
:1058E00013F0080F07D0114A936823F4604321692D
:1058F00043EAC1039360FFF70BFF0C4B9B68C3F3B4
:1059000003130B4AD35CD8400A4B18600A4B186843
:10591000FEF7C4FB002070BD012070470120FAE7AC
:105920000120F8E70120F6E7003C02400038024081
:10593000A0DF0408240A002034010020014B18686D
:10594000704700BF240A002008B5FFF7F7FF044B9B
:105950009B68C3F38223034AD35CD84008BD00BFD1
:1059600000380240B0DF040808B5FFF7E7FF044B3A
:105970009B68C3F34233034AD35CD84008BD00BFE1
:1059800000380240B0DF04080268D36843F0010326
:10599000D3600268936803F00703062B03D01368F3
:1059A00043F0010313600020704770477047704751
:1059B000704710B5044603681A6912F0020F11D03F
:1059C000DA6812F0020F0DD06FF002021A610123A3
:1059D000037703689B6913F0030F70D0FFF7E6FFAE
:1059E0000023237723681A6912F0040F12D0DA68B3
:1059F00012F0040F0ED06FF004021A610223237715
:105A000023689B6913F4407F5FD02046FFF7CEFFE9
:105A10000023237723681A6912F0080F12D0DA687E
:105A200012F0080F0ED06FF008021A6104232377DA
:105A30002368DB6913F0030F4ED02046FFF7B6FF53
:105A40000023237723681A6912F0100F12D0DA6846
:105A500012F0100F0ED06FF010021A610823237796
:105A60002368DB6913F4407F3DD02046FFF79EFF9B
:105A70000023237723681A6912F0010F03D0DA6834
:105A800012F0010F36D123681A6912F0800F03D08B
:105A9000DA6812F0800F34D123681A6912F0400FCF
:105AA00003D0DA6812F0400F32D123681A6912F07D
:105AB000200F03D0DA6812F0200F30D110BDFFF7AD
:105AC00074FF2046FFF773FF8AE72046FFF76DFF5C
:105AD0002046FFF76CFF9BE72046FFF766FF204656
